:020000040800F2
:1000000000280020C10F0008E50E0008EB0E0008D4
:10001000F10E0008F70E0008FD0E000800000000B9
:10002000000000000000000000000000030F0008B6
:100030000F0F0008000000001B0F0008270F00082A
:10004000091000080910000809100008091000082C
:10005000091000080910000809100008091000081C
:10006000091000080910000809100008091000080C
:1000700009100008091000080910000809100008FC
:1000800009100008091000080910000809100008EC
:1000900009100008091000080910000809100008DC
:1000A00009100008091000080910000809100008CC
:1000B000350F0008091000080000000009100008B2
:1000C00009100008000000000000000009100008EE
:1000D00000000000091000080910000800000000DE
:1000E00009100008091000080910000800000000AD
:1000F0000000000000000000000000000000000000
:0C01000000000000000000005FF808F1A3
:10010C0010B5054C237833B9044B13B10448AFF345
:10011C0000800123237010BD90000020000000001F
:10012C000428000808B5034B1BB103490348AFF37F
:10013C00008008BD00000000940000200428000886
:10014C0090B587B000AF3C4684E80F00142002F055
:10015C0077FA03467B613A687B691A60BA887B69D7
:10016C009A80FA887B69DA803A7A7B691A72FA6823
:10017C007B69DA607B6900221A617B6918461C373F
:10018C00BD4690BD84B080B584B000AF786007F1F7
:10019C001C0080E80E0007F11C030FCBFFF7D0FF0B
:1001AC00B8607B681B68002B03D17B68BA681A6047
:1001BC0045E07B681B68FB60BB689A88FB689B8882
:1001CC009A420ED2FB689A88BB689B88D31A9AB263
:1001DC00FB689A80BB68FA681A617B68BA681A6017
:1001EC002DE0BB689A88FB689B88D31A9AB2BB68CF
:1001FC009A800AE0FB681B69FB60BB689A88FB6805
:10020C009B88D31A9AB2BB689A80FB681B69002B37
:10021C0006D0BB689A88FB681B699B889A42E9D216
:10022C00FB681B69002B03D1FB68BA681A6106E0F6
:10023C00FB681A69BB681A61FB68BA681A611037E7
:10024C00BD46BDE8804004B0704780B584B000AFB7
:10025C0078607B68002B0AD07B681B68FB60FB68AE
:10026C001A697B681A60F86802F0F2F900E000BFC6
:10027C001037BD4680BD000080B483B000AF7860FD
:10028C007B68022B01DD01230DE0094A7B6852F8E3
:10029C002330012B06D1064A7B68002142F823103B
:1002AC00002300E0012318460C37BD4680BC704784
:1002BC00E800002080B483B000AF7860044A7B680B
:1002CC00012142F8231000BF0C37BD4680BC70479B
:1002DC00E800002080B582B000AF00237B6072E0A4
:1002EC003D4A7B6852F823203C497B6841F8232027
:1002FC003B4A7B6852F8232037497B6841F823201E
:10030C00384A7B6852F8232037497B6831F8133020
:10031C001946104601F05EF903461946304A7B68CF
:10032C0042F823102C4A7B6852F823202C497B6816
:10033C0051F823309A4243D1274A7B6852F8232044
:10034C0026497B6851F823309A4239D1234A7B687D
:10035C0052F8232025497B6851F823309A4217D054
:10036C001E4A7B6852F8232020497B6841F82320E1
:10037C001E4A7B6852F82330002B21D11C4A7B6823
:10038C004FF4FA7142F823107868FFF793FF17E0E7
:10039C00174A7B6852F823305A1E15497B6841F87E
:1003AC002320134A7B6852F82330002B08D1104AC3
:1003BC007B684FF4FA7142F823107868FFF77AFFE4
:1003CC007B6801337B607B68022B89DD00BF00BF3B
:1003DC000837BD4680BD00BFB8000020C400002017
:1003EC00AC000020000000200C000020D0000020F9
:1003FC00DC00002080B500AF404B1B68042B7AD882
:10040C0001A252F823F000BF290400084F04000891
:10041C0075040008A7040008D304000800F0C2FA11
:10042C00364B01221A60364B00221A70354B1B7862
:10043C001A46354B1A60354B1B781A46344B1A60EA
:10044C0059E000F069F80020FFF716FF0346002B77
:10045C004AD100F0A7FA294B02221A602B4B1B78C9
:10046C001A462C4B1A603FE0244B1B68184600F0D0
:10047C002BF90020FFF700FF0346002B36D100F0CC
:10048C0091FA1E4B03221A60204B1B781A461D4B07
:10049C001B78D31A1F4A136028E0184B1B681846A8
:1004AC0000F012F90020FFF7E7FE0346002B1FD1E6
:1004BC0000F078FA114B04221A60124B1B781A4682
:1004CC00144B1A6014E00D4B1B68184600F0FCF836
:1004DC000020FFF7D1FE0346002B0BD100F062FA8F
:1004EC00064B00221A6005E000BF04E000BF02E0EA
:1004FC0000BF00E000BF00BF80BD00BF04010020B2
:10050C000001002013000020F40000201200002045
:10051C00F8000020FC00002080B500AF634B1B7876
:10052C00032B00F29E8001A252F823F0490500082B
:10053C0091050008D10500082106000801222021A0
:10054C005B4801F05EF801220221594801F059F88C
:10055C0000220821564801F054F80022102154487A
:10056C0001F04FF8534B1B68002B73DC4F4B0122EF
:10057C001A70514B1B781A46504B1B78D31A4D4AA4
:10058C00136067E001220821494801F03AF8002283
:10059C000421474801F035F8464B1B68002B03DD5E
:1005AC00474B1B68002B57DC404B02221A70424B06
:1005BC001B781A463F4B1A60404B1B781A46404B2F
:1005CC001A6049E001220421394801F01AF801228D
:1005DC001021374801F015F800224021344801F071
:1005EC0010F800220221324801F00BF8314B1B6845
:1005FC00002B03DD324B1B68002B2FDC2B4B032213
:10060C001A702D4B1B781A462C4B1B78D31A2C4A7C
:10061C00136023E001224021254800F0F2FF002264
:10062C002021234800F0EDFF224B1B68002B03DD3B
:10063C00234B1B68002B13DC1C4B00221A701F4B26
:10064C001B781A461B4B1A601B4B1B781A461C4B0B
:10065C001A6005E000BF04E000BF02E000BF00E04C
:10066C0000BF184B1B78134A1268D1B2144A126897
:10067C00D2B2184600F0D4F9124B1B780133DAB21F
:10068C00104B1A700F4B1B78032B0CD90D4B0022FF
:10069C001A70084B1B68013B064A1360084B1B6819
:1006AC00013B074A136000BF80BD00BF0001002062
:1006BC0000080140F400002012000020130000206C
:1006CC00F80000200101002080B582B000AF7860F6
:1006DC007B68042B00F08A807B68042B00F3C380BA
:1006EC007B68022B03D07B68032B3ED0BBE002213E
:1006FC00624800F09EFF1021604800F09AFF604BAA
:10070C001B780133DAB25E4B1A705D4B1B78032BEE
:10071C0002D95B4B00221A70594B1B787A68D1B204
:10072C00584A1268D2B2184600F07AF90120FFF745
:10073C00A3FD0346002B0BD1524B1B680133514ACE
:10074C001360504B1B68632B02DD4E4B00221A606A
:10075C000220FFF791FD0346002B40F08680494BA9
:10076C001B68DAB2484B1A707FE00421434800F052
:10077C0060FF2021414800F05CFF414B1B780133A6
:10078C00DAB23F4B1A703E4B1B78032B02D93C4B11
:10079C0000221A703A4B1B787A68D1B2394A126827
:1007AC00D2B2184600F03CF90120FFF765FD034674
:1007BC00002B0BD1334B1B680133324A1360314B86
:1007CC001B68632B02DD2F4B00221A600220FFF7FF
:1007DC0053FD0346002B4AD12A4B1B68DAB22B4B34
:1007EC001B781344DAB2284B1A7040E008212348D6
:1007FC0000F01FFF4021214800F01BFF204B1B780D
:10080C000133DAB21E4B1A701D4B1B78032B02D925
:10081C001B4B00221A701A4B1B787A68D1B2194AFA
:10082C001268D2B2184600F0FBF80120FFF724FD45
:10083C000346002B0BD1134B1B680133114A136079
:10084C00104B1B68632B02DD0E4B00221A6002203A
:10085C00FFF712FD0346002B0BD10A4B1B68DAB2D3
:10086C000A4B1A7005E000BF04E000BF02E000BFB5
:10087C0000E000BF00BF0837BD4680BD0008014046
:10088C0001010020FC0000201200002013000020B9
:10089C0080B582B000AF0346FB71FB793F4AD35C55
:1008AC0003F00103002B0CBF01230023DBB21A461B
:1008BC004FF400713A4800F0A4FEFB79374AD35C40
:1008CC005B08DBB203F00103002B0CBF01230023F8
:1008DC00DBB21A464FF48061314800F092FEFB798E
:1008EC002E4AD35C9B08DBB203F00103002B0CBF38
:1008FC0001230023DBB21A464FF40061284800F0B4
:10090C0080FEFB79254AD35CDB08DBB203F00103E4
:10091C00002B0CBF01230023DBB21A464FF480518D
:10092C001F4800F06EFEFB791C4AD35C1B09DBB23E
:10093C0003F00103002B0CBF01230023DBB21A468A
:10094C004FF40051164800F05CFEFB79134AD35C5F
:10095C005B09DBB203F00103002B0CBF0123002366
:10096C00DBB21A464FF480410D4800F04AFEFB7989
:10097C000A4AD35C9B09DBB203F00103002B0CBFCA
:10098C0001230023DBB21A464FF40041044800F067
:10099C0038FE00BF0837BD4680BD00BF14000020E4
:1009AC00000C014080B500AF012208210E4800F078
:1009BC0028FE012240210C4800F023FE01220421D4
:1009CC00094800F01EFE01222021074800F019FE04
:1009DC0001220221044800F014FE012210210248D9
:1009EC0000F00FFE00BF80BD0008014080B500AFD5
:1009FC0001220121094800F004FE012202210748CE
:100A0C0000F0FFFD01220421044800F0FAFD012250
:100A1C000821024800F0F5FD00BF80BD000C01402C
:100A2C0080B582B000AF0346FB710B46BB71134619
:100A3C007B71FFF7DBFFFB79032B51D801A252F836
:100A4C0023F000BF610A00087F0A0008A70A00080B
:100A5C00C50A0008BB79244AA2FB0323DB08DBB2DE
:100A6C001846FFF715FF00220121204800F0C9FDB0
:100A7C0036E0BA791C4BA3FB0213D9080B469B003A
:100A8C000B445B00D31ADBB21846FFF701FF0022C0
:100A9C000221164800F0B5FD22E07B79124AA2FB38
:100AAC000323DB08DBB21846FFF7F2FE0022042119
:100ABC000E4800F0A6FD13E07A790B4BA3FB021352
:100ACC00D9080B469B000B445B00D31ADBB21846CB
:100ADC00FFF7DEFE00220821044800F092FD00BF63
:100AEC0000BF0837BD4680BDCDCCCCCC000C01403E
:100AFC0080B500AF00F084FA00F014F800F09AF81A
:100B0C0000F04CF8054801F0D9F9192219210448D4
:100B1C0000F012F900F056F9FCE700BF1C010020B0
:100B2C000104000880B590B000AF07F1180328222B
:100B3C000021184601F094FD3B1D00221A605A60FA
:100B4C009A60DA601A610223BB610123BB62102335
:100B5C00FB6200237B6307F11803184600F082FD4B
:100B6C000346002B01D000F0E1F80F237B6000233B
:100B7C00BB600023FB6000233B6100237B613B1DBA
:100B8C000021184600F0EEFF0346002B01D000F0C8
:100B9C00CDF800BF4037BD4680BD000080B586B0A3
:100BAC0000AF07F1080300221A605A609A60DA60FD
:100BBC003B4600221A605A601D4B4FF080421A606F
:100BCC001B4B41F63F725A60194B00229A60184B2E
:100BDC000922DA60164B00221A61154B00229A6129
:100BEC00134801F01BF90346002B01D000F09EF8CE
:100BFC004FF48053BB6007F1080319460C4801F011
:100C0C00B1FA0346002B01D000F090F800233B60B2
:100C1C0000237B603B461946054801F07DFC0346EA
:100C2C00002B01D000F082F800BF1837BD4680BD04
:100C3C001C01002080B588B000AF07F11003002222
:100C4C001A605A609A60DA602E4B9B692D4A43F009
:100C5C00100393612B4B9B6903F01003FB60FB6843
:100C6C00284B9B69274A43F004039361254B9B69EE
:100C7C0003F00403BB60BB68224B9B69214A43F021
:100C8C00080393611F4B9B6903F008037B607B682F
:100C9C0001227E211C4800F0B4FC01224FF60F61AA
:100CAC001A4800F0AEFC4FF460433B6100237B61BB
:100CBC000123BB6107F110031946154800F010FB26
:100CCC007E233B6101237B610023BB610223FB611B
:100CDC0007F1100319460C4800F002FB4FF60F63A6
:100CEC003B6101237B610023BB610223FB6107F1A4
:100CFC0010031946054800F0F3FA00BF2037BD4633
:100D0C0080BD00BF0010024000080140000C0140F3
:100D1C000010014080B582B000AF786000F034F86C
:100D2C00FFF7D8FA00BF0837BD4680BD80B400AFCE
:100D3C0072B600BFFEE7000080B588B002AF7860E5
:100D4C000B467B8013463B807B68BB607B88BB81FA
:100D5C003B88FB8100233B74094B1B785A1CD1B296
:100D6C00074A11707B617B69009307F108030ECB76
:100D7C000448FFF707FA00BF1837BD4680BD00BF17
:100D8C00080100200C01002080B400AF0C4B1B6844
:100D9C00002B10D00A4B1B689B88002B04D1084BEE
:100DAC001B6801221A7207E0054B1B689A88013AEE
:100DBC0092B29A8000E000BFBD4680BC704700BF75
:100DCC000C01002080B586B002AF174B1B68002BBE
:100DDC0025D0154B1B681B7A012B21D1124B1B689C
:100DEC001B689847104B1B68DB88BB800E4B1B683D
:100DFC00DB88FB8000233B720B4B1B681B683B6042
:100E0C00094B1B68DB68FB600748FFF71EFAFB68A1
:100E1C0000933B460ECB0448FFF7B4F900E000BF4B
:100E2C001037BD4680BD00BF0C01002080B485B0DA
:100E3C0000AF154B9B69144A43F001039361124BAD
:100E4C009B6903F00103BB60BB680F4BDB690E4A67
:100E5C0043F08053D3610C4BDB6903F080537B6010
:100E6C007B680A4B5B68FB60FB6823F0E063FB600C
:100E7C00FB6843F08063FB60044AFB68536000BF6F
:100E8C001437BD4680BC7047001002400000014082
:100E9C0080B584B000AF78607B681B68B3F1804F7D
:100EAC0013D10C4BDB690B4A43F00103D361094BA3
:100EBC00DB6903F00103FB60FB68002200211C20AE
:100ECC0000F0D7F91C2000F0F0F900BF1037BD4638
:100EDC0080BD00BF0010024080B400AFFEE780B4BC
:100EEC0000AFFEE780B400AFFEE780B400AFFEE7D2
:100EFC0080B400AFFEE780B400AF00BFBD4680BC3D
:100F0C00704780B400AF00BFBD4680BC704780B452
:100F1C0000AF00BFBD4680BC704780B500AF00F08D
:100F2C00B5F800BF80BD000080B500AF024801F0ED
:100F3C0011F800BF80BD00BF1C01002080B586B039
:100F4C0000AF7860144A154BD31A7B617B693B6107
:100F5C00134B1B68002B02D1114B124A1A60104B19
:100F6C001A687B6813443A699A4207D201F03EFB37
:100F7C0003460C221A604FF0FF3309E0084B1B6844
:100F8C00FB60074B1A687B681344054A1360FB68C7
:100F9C0018461837BD4680BD00280020000400000C
:100FAC00100100207801002080B400AF00BFBD46C6
:100FBC0080BC7047FFF7F8FF0B480C490C4A002324
:100FCC0002E0D458C4500433C4188C42F9D3094AF3
:100FDC00094C002301E013600432A242FBD301F060
:100FEC000BFBFFF785FD70470000002090000020F0
:100FFC00482800089000002078010020FEE700003F
:10100C0080B500AF084B1B68074A43F01003136010
:10101C00032000F023F90F2000F008F8FFF706FF7B
:10102C000023184680BD00BF0020024080B582B06E
:10103C0000AF7860124B1A68124B1B7819464FF4AC
:10104C007A73B3FBF1F3B2FBF3F3184600F03BF900
:10105C000346002B01D001230EE07B680F2B0AD82E
:10106C00002279684FF0FF3000F003F9064A7B68E4
:10107C001360002300E0012318460837BD4680BDED
:10108C0020000020280000202400002080B400AFA5
:10109C00054B1B781A46054B1B681344034A136017
:1010AC0000BFBD4680BC70472800002064010020B2
:1010BC0080B400AF024B1B681846BD4680BC70471D
:1010CC006401002080B485B000AF78607B6803F0C9
:1010DC000703FB600C4BDB68BB60BA684FF6FF0381
:1010EC001340BB60FB681A02BB68134343F0BF6339
:1010FC0043F40033BB60044ABB68D36000BF1437B1
:10110C00BD4680BC704700BF00ED00E080B400AF6E
:10111C00044BDB681B0A03F007031846BD4680BC72
:10112C00704700BF00ED00E080B483B000AF034611
:10113C00FB7197F90730002B0BDBFB7903F01F02D7
:10114C00064997F907305B09012000FA02F241F8D1
:10115C00232000BF0C37BD4680BC704700E100E087
:10116C0080B483B000AF03463960FB7197F9073048
:10117C00002B0ADB3B68DAB20C4997F907301201F5
:10118C00D2B20B4483F800230AE03B68DAB2084978
:10119C00FB7903F00F03043B1201D2B20B441A7615
:1011AC0000BF0C37BD4680BC704700BF00E100E0BB
:1011BC0000ED00E080B489B000AFF860B9607A60EF
:1011CC00FB6803F00703FB61FB69C3F10703042B06
:1011DC0028BF0423BB61FB690433062B02D9FB69CE
:1011EC00033B00E000237B614FF0FF32BB6902FA46
:1011FC0003F3DA43BB681A407B699A404FF0FF3126
:10120C007B6901FA03F3D9437B680B4013431846FF
:10121C002437BD4680BC704780B582B000AF786083
:10122C007B68013BB3F1807F01D301230FE00A4AB5
:10123C007B68013B53600F214FF0FF30FFF790FFAD
:10124C00054B00229A60044B07221A6000231846B3
:10125C000837BD4680BD00BF10E000E080B582B00D
:10126C0000AF78607868FFF72DFF00BF0837BD46E8
:10127C0080BD80B586B000AF0346B9607A60FB7361
:10128C0000237B61FFF742FF78617A68B96878695F
:10129C00FFF790FF024697F90F3011461846FFF7FB
:1012AC005FFF00BF1837BD4680BD80B582B000AF70
:1012BC000346FB7197F907301846FFF735FF00BF5F
:1012CC000837BD4680BD80B582B000AF78607868C5
:1012DC00FFF7A2FF034618460837BD4680BD000045
:1012EC0080B48BB000AF7860396000237B62002340
:1012FC003B6248E101227B6A02FA03F3FB613B6823
:10130C001B68FA691340BB61BA69FB699A4240F0E9
:10131C0037813B685B68A34A93425ED0A14A9342F3
:10132C0075D8A14A934258D09F4A93426FD89F4A8E
:10133C00934252D09D4A934269D89D4A93424CD0D5
:10134C009B4A934263D89B4A934246D0994A934214
:10135C005DD8122B2AD8122B59D801A252F823F09F
:10136C00E7130008C1130008D31300081514000874
:10137C001B1400081B1400081B1400081B14000885
:10138C001B1400081B1400081B1400081B14000875
:10139C001B1400081B1400081B1400081B14000865
:1013AC001B140008C9130008DD130008824A93427D
:1013BC0013D02CE03B68DB683B6229E03B68DB68C0
:1013CC0004333B6224E03B68DB6808333B621FE07C
:1013DC003B68DB680C333B621AE03B689B68002B74
:1013EC0002D104233B6213E03B689B68012B05D1BF
:1013FC0008233B627B68FA691A6109E008233B62A7
:10140C007B68FA695A6103E000233B6200E000BF8D
:10141C00BB69FF2B01D87B6801E07B6804337B61DF
:10142C00BB69FF2B02D87B6A9B0002E07B6A083BFE
:10143C009B003B617B691A680F213B6901FA03F33E
:10144C00DB431A40396A3B6901FA03F31A437B699F
:10145C001A603B685B6803F08053002B00F09080AF
:10146C00564B9B69554A43F001039361534B9B695F
:10147C0003F00103BB60BB68514A7B6A9B080233D3
:10148C0052F82330FB607B6A03F003039B000F22AE
:10149C0002FA03F3DB43FA681340FB607B68494AAA
:1014AC0093420DD07B68484A934207D07B68474AE9
:1014BC00934201D1022304E0032302E0012300E064
:1014CC0000237A6A02F0030292009340FA681343F5
:1014DC00FB603B497B6A9B080233FA6841F8232086
:1014EC003B685B6803F48013002B06D0384B9A687A
:1014FC003749BB6913438B6006E0354B9A68BB696F
:10150C00DB43334913408B603B685B6803F4001387
:10151C00002B06D02E4BDA682D49BB691343CB60E8
:10152C0006E02B4BDA68BB69DB4329491340CB60DF
:10153C003B685B6803F40033002B06D0244B5A68DD
:10154C002349BB6913434B6006E0214B5A68BB69C6
:10155C00DB431F4913404B603B685B6803F48033EB
:10156C00002B06D01A4B1A681949BB6913430B6040
:10157C0006E0174B1A68BB69DB43154913400B6037
:10158C007B6A01337B623B681A687B6A22FA03F33D
:10159C00002B7FF4AFAE00BF00BF2C37BD4680BC24
:1015AC00704700BF00003210000031100000221004
:1015BC000000211000001210000011100010024059
:1015CC000000014000080140000C014000100140E7
:1015DC000004014080B485B000AF78600B467B807E
:1015EC007B689A687B881340002B02D00123FB7325
:1015FC0001E00023FB73FB7B18461437BD4680BC0F
:10160C00704780B483B000AF78600B467B80134684
:10161C007B707B78002B03D07A887B681A6103E09F
:10162C007B881A047B681A6100BF0C37BD4680BCEE
:10163C00704780B485B000AF78600B467B807B68C8
:10164C00DB68FB607A88FB6813401A04FB68D9439B
:10165C007B880B401A437B681A6100BF1437BD4668
:10166C0080BC704780B586B000AF78607B68002B7B
:10167C0001D101236CE27B681B6803F00103002B92
:10168C0000F08780924B5B6803F00C03042B0CD0AA
:10169C008F4B5B6803F00C03082B12D18C4B5B68EF
:1016AC0003F48033B3F5803F0BD1894B1B6803F4F3
:1016BC000033002B6CD07B685B68002B68D1012356
:1016CC0046E27B685B68B3F5803F06D1804B1B68B4
:1016DC007F4A43F4803313602EE07B685B68002BF9
:1016EC000CD17B4B1B687A4A23F480331360784B04
:1016FC001B68774A23F4802313601DE07B685B68CA
:10170C00B3F5A02F0CD1724B1B68714A43F48023A4
:10171C0013606F4B1B686E4A43F4803313600BE00D
:10172C006B4B1B686A4A23F480331360684B1B684D
:10173C00674A23F4802313607B685B68002B13D00B
:10174C00FFF7B6FC386108E0FFF7B2FC02463B69D4
:10175C00D31A642B01D90323FAE15D4B1B6803F404
:10176C000033002BF0D014E0FFF7A2FC386108E046
:10177C00FFF79EFC02463B69D31A642B01D9032365
:10178C00E6E1534B1B6803F40033002BF0D100E06F
:10179C0000BF7B681B6803F00203002B63D04C4B2B
:1017AC005B6803F00C03002B0BD0494B5B6803F018
:1017BC000C03082B1CD1464B5B6803F48033002BC5
:1017CC0016D1434B1B6803F00203002B05D07B683A
:1017DC001B69012B01D00123BAE13D4B1B6823F09F
:1017EC00F8027B685B69DB00394913430B603AE014
:1017FC007B681B69002B20D0364B01221A60FFF747
:10180C0057FC386108E0FFF753FC02463B69D31ADA
:10181C00022B01D903239BE12D4B1B6803F0020320
:10182C00002BF0D02A4B1B6823F0F8027B685B6915
:10183C00DB00274913430B6015E0264B00221A608E
:10184C00FFF736FC386108E0FFF732FC02463B69D3
:10185C00D31A022B01D903237AE11D4B1B6803F029
:10186C000203002BF0D17B681B6803F00803002BEC
:10187C003AD07B689B69002B19D0174B01221A6058
:10188C00FFF716FC386108E0FFF712FC02463B69D3
:10189C00D31A022B01D903235AE10D4B5B6A03F0D7
:1018AC000203002BF0D0012000F09AFA1CE00A4B46
:1018BC0000221A60FFF7FCFB38610FE0FFF7F8FB22
:1018CC0002463B69D31A022B08D9032340E100BF1F
:1018DC000010024000004242800442429E4B5B6A70
:1018EC0003F00203002BE9D17B681B6803F00403AF
:1018FC00002B00F0A6800023FB75974BDB6903F0EF
:10190C008053002B0DD1944BDB69934A43F08053E9
:10191C00D361914BDB6903F08053BB60BB6801233F
:10192C00FB758E4B1B6803F48073002B18D18B4B0B
:10193C001B688A4A43F480731360FFF7B9FB386164
:10194C0008E0FFF7B5FB02463B69D31A642B01D9BB
:10195C000323FDE0814B1B6803F48073002BF0D054
:10196C007B68DB68012B06D17B4B1B6A7A4A43F000
:10197C00010313622DE07B68DB68002B0CD1764BE6
:10198C001B6A754A23F001031362734B1B6A724A7C
:10199C0023F0040313621CE07B68DB68052B0CD17D
:1019AC006D4B1B6A6C4A43F0040313626A4B1B6A4F
:1019BC00694A43F0010313620BE0674B1B6A664AEA
:1019CC0023F001031362644B1B6A634A23F0040384
:1019DC0013627B68DB68002B15D0FFF769FB38615D
:1019EC000AE0FFF765FB02463B69D31A41F28832E5
:1019FC00934201D90323ABE0574B1B6A03F002035C
:101A0C00002BEED014E0FFF753FB38610AE0FFF730
:101A1C004FFB02463B69D31A41F28832934201D9FB
:101A2C00032395E04C4B1B6A03F00203002BEED111
:101A3C00FB7D012B05D1484BDB69474A23F08053D2
:101A4C00D3617B68DB69002B00F08180424B5B68C3
:101A5C0003F00C03082B61D07B68DB69022B46D1A9
:101A6C003F4B00221A60FFF723FB386108E0FFF7B9
:101A7C001FFB02463B69D31A022B01D9032367E0F3
:101A8C00354B1B6803F00073002BF0D17B681B6A8D
:101A9C00B3F5803F08D1304B5B6823F400327B6890
:101AAC009B682D4913434B602B4B5B6823F47412DA
:101ABC007B68196A7B685B6A0B43274913434B604D
:101ACC00274B01221A60FFF7F3FA386108E0FFF7A1
:101ADC00EFFA02463B69D31A022B01D9032337E0F4
:101AEC001D4B1B6803F00073002BF0D02FE01C4B38
:101AFC0000221A60FFF7DCFA386108E0FFF7D8FA29
:101B0C0002463B69D31A022B01D9032320E0124B66
:101B1C001B6803F00073002BF0D118E07B68DB69C5
:101B2C00012B01D1012313E00B4B5B68FB60FB68BD
:101B3C0003F480327B681B6A9A4206D1FB6803F47B
:101B4C0070127B685B6A9A4201D0012300E000238B
:101B5C0018461837BD4680BD00100240007000408A
:101B6C006000424280B584B000AF786039607B6819
:101B7C00002B01D10123D0E06A4B1B6803F0070353
:101B8C003A689A4210D9674B1B6823F007026549E3
:101B9C003B6813430B60634B1B6803F007033A6805
:101BAC009A4201D00123B8E07B681B6803F0020362
:101BBC00002B20D07B681B6803F00403002B05D09E
:101BCC00594B5B68584A43F4E06353607B681B686D
:101BDC0003F00803002B05D0534B5B68524A43F4C7
:101BEC0060535360504B5B6823F0F0027B689B683A
:101BFC004D4913434B607B681B6803F00103002BBA
:101C0C0040D07B685B68012B07D1474B1B6803F402
:101C1C000033002B15D101237FE07B685B68022B1E
:101C2C0007D1414B1B6803F00073002B09D1012332
:101C3C0073E03D4B1B6803F00203002B01D1012321
:101C4C006BE0394B5B6823F003027B685B683649B9
:101C5C0013434B60FFF72CFAF8600AE0FFF728FA01
:101C6C000246FB68D31A41F28832934201D903230E
:101C7C0053E02D4B5B6803F00C027B685B689B00A8
:101C8C009A42EBD1274B1B6803F007033A689A4240
:101C9C0010D2244B1B6823F0070222493B681343E4
:101CAC000B60204B1B6803F007033A689A4201D083
:101CBC00012332E07B681B6803F00403002B08D07F
:101CCC00194B5B6823F4E0627B68DB6816491343AD
:101CDC004B607B681B6803F00803002B09D0124B88
:101CEC005B6823F460527B681B69DB000E4913436D
:101CFC004B6000F021F802460B4B5B681B0903F0AC
:101D0C000F030A49CB5C22FA03F3094A1360094B0F
:101D1C001B681846FFF78AF9002318461037BD4692
:101D2C0080BD00BF00200240001002401C280008AB
:101D3C00200000202400002080B487B000AF0023D6
:101D4C00FB600023BB6000237B6100237B600023CE
:101D5C003B611E4B5B68FB60FB6803F00C03042BC0
:101D6C0002D0082B03D027E0194B3B6127E0FB681E
:101D7C009B0C03F00F03174AD35C7B60FB6803F4E6
:101D8C008033002B10D0114B5B685B0C03F001030C
:101D9C00114AD35CBB607B680D4A02FB03F2BB6843
:101DAC00B2FBF3F37B6104E07B680C4A02FB03F3A8
:101DBC007B617B693B6102E0054B3B6100BF3B698A
:101DCC0018461C37BD4680BC704700BF001002404F
:101DDC0000127A002C2800083C28000800093D005D
:101DEC0080B485B000AF78600A4B1B680A4AA2FB2E
:101DFC0003235B0A7A6802FB03F3FB6000BFFB68FA
:101E0C005A1EFA60002BF9D100BF00BF1437BD4633
:101E1C0080BC704720000020D34D621080B582B08A
:101E2C0000AF78607B68002B01D1012341E07B6817
:101E3C0093F83D30DBB2002B06D17B68002283F88F
:101E4C003C207868FFF724F87B68022283F83D2059
:101E5C007B681A687B6804331946104600F06EFAEA
:101E6C007B68012283F846207B68012283F83E20A0
:101E7C007B68012283F83F207B68012283F8402095
:101E8C007B68012283F841207B68012283F8422081
:101E9C007B68012283F843207B68012283F844206D
:101EAC007B68012283F845207B68012283F83D2062
:101EBC00002318460837BD4680BD000080B485B0AD
:101ECC0000AF78607B6893F83D30DBB2012B01D01A
:101EDC00012335E07B68022283F83D207B681B6878
:101EEC00DA687B681B6842F00102DA607B681B6869
:101EFC00164A934209D07B681B68B3F1804F04D01B
:101F0C007B681B68124A934211D17B681B689B68E3
:101F1C0003F00703FB60FB68062B10D07B681B6883
:101F2C001A687B681B6842F001021A6007E07B6844
:101F3C001B681A687B681B6842F001021A60002358
:101F4C0018461437BD4680BC704700BF002C0140BA
:101F5C000004004080B582B000AF78607B681B68DD
:101F6C001B6903F00203022B22D17B681B68DB6820
:101F7C0003F00203022B1BD17B681B686FF002027B
:101F8C001A617B6801221A777B681B689B6903F0D6
:101F9C000303002B03D0786800F0B4F905E07868EF
:101FAC0000F0A7F9786800F0B6F97B6800221A7780
:101FBC007B681B681B6903F00403042B22D17B682C
:101FCC001B68DB6803F00403042B1BD17B681B68C4
:101FDC006FF004021A617B6802221A777B681B6817
:101FEC009B6903F44073002B03D0786800F08AF9E6
:101FFC0005E0786800F07DF9786800F08CF97B6872
:10200C0000221A777B681B681B6903F00803082BF6
:10201C0022D17B681B68DB6803F00803082B1BD1FB
:10202C007B681B686FF008021A617B6804221A77C0
:10203C007B681B68DB6903F00303002B03D0786813
:10204C0000F060F905E0786800F053F9786800F06A
:10205C0062F97B6800221A777B681B681B6903F0A6
:10206C001003102B22D17B681B68DB6803F0100374
:10207C00102B1BD17B681B686FF010021A617B68F8
:10208C0008221A777B681B68DB6903F44073002B0A
:10209C0003D0786800F036F905E0786800F029F98B
:1020AC00786800F038F97B6800221A777B681B6827
:1020BC001B6903F00103012B0ED17B681B68DB68E5
:1020CC0003F00103012B07D17B681B686FF0010241
:1020DC001A617868FEF71EFE7B681B681B6903F0AB
:1020EC008003802B0ED17B681B68DB6803F08003B8
:1020FC00802B07D17B681B686FF080021A617868AF
:10210C0000F06BFA7B681B681B6903F04003402BE3
:10211C000ED17B681B68DB6803F04003402B07D1B2
:10212C007B681B686FF040021A61786800F0FCF85D
:10213C007B681B681B6903F02003202B0ED17B6886
:10214C001B68DB6803F02003202B07D17B681B681E
:10215C006FF020021A61786800F036FA00BF083779
:10216C00BD4680BD80B584B000AF78603960002377
:10217C00FB737B6893F83C30012B01D10223B4E054
:10218C007B68012283F83C207B68022283F83D2087
:10219C007B681B689B68BB60BB6823F07703BB60E4
:1021AC00BB6823F47F43BB607B681B68BA689A608A
:1021BC003B681B68B3F5005F3ED0B3F5005F00F2DF
:1021CC008780B3F5805F00F08680B3F5805F7FD8A1
:1021DC00702B1AD0702B7BD8602B50D0602B77D8FB
:1021EC00502B3CD0502B73D8402B58D0402B6FD851
:1021FC00302B64D0302B6BD8202B60D0202B67D8A1
:10220C00002B5CD0102B5AD062E07B6818683B68BE
:10221C0099683B685A683B68DB6800F05EF97B683C
:10222C001B689B68BB60BB6843F07703BB607B6833
:10223C001B68BA689A604FE07B6818683B689968BD
:10224C003B685A683B68DB6800F047F97B681B68A1
:10225C009A687B681B6842F480429A603CE07B6819
:10226C0018683B6859683B68DB681A4600F0BEF892
:10227C007B681B685021184600F015F92CE07B6830
:10228C0018683B6859683B68DB681A4600F0DCF854
:10229C007B681B686021184600F005F91CE07B6820
:1022AC0018683B6859683B68DB681A4600F09EF872
:1022BC007B681B684021184600F0F5F80CE07B6841
:1022CC001A683B681B681946104600F0ECF803E0EE
:1022DC000123FB7300E000BF7B68012283F83D20E3
:1022EC007B68002283F83C20FB7B18461037BD46E8
:1022FC0080BD80B483B000AF786000BF0C37BD46A2
:10230C0080BC704780B483B000AF786000BF0C37DE
:10231C00BD4680BC704780B483B000AF786000BF0E
:10232C000C37BD4680BC704780B483B000AF78607A
:10233C0000BF0C37BD4680BC7047000080B485B030
:10234C0000AF786039607B681B68FB607B68254A4E
:10235C00934207D07B68B3F1804F03D07B68224A4D
:10236C00934208D1FB6823F07003FB603B685B6809
:10237C00FA681343FB607B681A4A934207D07B6868
:10238C00B3F1804F03D07B68174A934208D1FB68A6
:10239C0023F44073FB603B68DB68FA681343FB6013
:1023AC00FB6823F080023B685B691343FB607B682E
:1023BC00FA681A603B689A687B68DA623B681A684C
:1023CC007B689A627B68074A934203D13B681A691F
:1023DC007B681A637B6801225A6100BF1437BD46C3
:1023EC0080BC7047002C01400004004080B487B0D2
:1023FC0000AFF860B9607A60FB681B6A7B61FB68B0
:10240C001B6A23F00102FB681A62FB689B693B6143
:10241C003B6923F0F0033B617B681B013A69134372
:10242C003B617B6923F00A037B617A69BB681343C8
:10243C007B61FB683A699A61FB687A691A6200BF32
:10244C001C37BD4680BC704780B487B000AFF860C5
:10245C00B9607A60FB681B6A7B61FB681B6A23F0BE
:10246C001002FB681A62FB689B693B613B6923F4B1
:10247C0070433B617B681B033A6913433B617B6987
:10248C0023F0A0037B61BB681B017A6913437B615A
:10249C00FB683A699A61FB687A691A6200BF1C375B
:1024AC00BD4680BC704780B485B000AF78603960A1
:1024BC007B689B68FB60FB6823F07003FB603A68E9
:1024CC00FB68134343F00703FB607B68FA689A6070
:1024DC0000BF1437BD4680BC704780B487B000AFD6
:1024EC00F860B9607A603B60FB689B687B617B69D4
:1024FC0023F47F437B613B681A027B681A43BB68F9
:10250C0013437A6913437B61FB687A699A6000BF55
:10251C001C37BD4680BC704780B485B000AF786076
:10252C0039607B6893F83C30012B01D1022341E0E8
:10253C007B68012283F83C207B68022283F83D20D3
:10254C007B681B685B68FB607B681B689B68BB6077
:10255C00FB6823F07003FB603B681B68FA6813434D
:10256C00FB607B681B68FA685A607B681B68144ABE
:10257C00934209D07B681B68B3F1804F04D07B6811
:10258C001B68104A93420CD1BB6823F08003BB60DC
:10259C003B685B68BA681343BB607B681B68BA68AE
:1025AC009A607B68012283F83D207B68002283F8C7
:1025BC003C20002318461437BD4680BC704700BF32
:1025CC00002C01400004004080B483B000AF786060
:1025DC0000BF0C37BD4680BC704780B483B000AFE1
:1025EC00786000BF0C37BD4680BC7047014B186843
:1025FC00704700BF2C00002070B500260C4D0D4C10
:10260C00641BA410A64209D100F0F6F800260A4D6E
:10261C000A4C641BA410A64205D170BD55F8043BAE
:10262C0098470136EEE755F8043B98470136F2E738
:10263C0040280008402800084028000844280008CA
:10264C00024B0146186800F05FB800BF2C00002058
:10265C00024B0146186800F00BB800BF2C0000209C
:10266C0003460244934200D1704703F8011BF9E77B
:10267C0038B50546002943D051F8043C0C1F002BFB
:10268C00B8BFE41800F0AAF81E4A1368104633B914
:10269C00636014602846BDE8384000F0A5B8A3423A
:1026AC000AD921686218934201BF1A685B685218F4
:1026BC00226063600460EDE71A465B680BB1A342CD
:1026CC00FAD911685018A0420BD120680144501857
:1026DC0083421160DED118685B680144116053605D
:1026EC00D8E702D90C232B60D4E7206821188B4241
:1026FC0001BF19685B680918216063605460C9E701
:10270C0038BD00BF14010020F8B5CD1C25F0030521
:10271C0008350C2D38BF0C25002D064601DBA942CF
:10272C0003D90C2333600020F8BD00F057F8214981
:10273C000A6814469CB9204F3B6823B921463046A1
:10274C0000F03CF838602946304600F037F8431C5E
:10275C0023D10C233046336000F046F8E3E72368BE
:10276C005B1B17D40B2B03D923601C44256004E09E
:10277C006368A2420CBF0B605360304600F034F823
:10278C0004F10B00231D20F00700C21ACCD01B1A39
:10279C00A350C9E722466468CCE7C41C24F00304A8
:1027AC00A042E3D0211A304600F008F80130DDD108
:1027BC00CFE700BF140100201801002038B500231A
:1027CC00054D044608462B60FEF7B8FB431C02D1AE
:1027DC002B6803B1236038BD68010020014800F06C
:1027EC0009B800BF70010020014800F004B800BF18
:1027FC007001002070477047F8B500BFF8BC08BCEA
:10280C009E467047F8B500BFF8BC08BC9E467047A2
:10281C000000000000000000010203040607080984
:10282C0002030405060708090A0B0C0D0E0F101005
:04283C000102000095
:04284000310100085A
:042844000D0100087A
:10284800001001400010014000100140002000402D
:10285800008005033F065B4F666D7D077F6F0000B4
:102868000024F400100000000100000030000020E7
:102878000000000000000000000000000000000050
:102888000000000000000000000000000000000040
:102898000000000000000000000000000000000030
:1028A8000000000000000000000000000000000020
:1028B8000000000000000000000000000000000010
:1028C8000000000000000000000000000000000000
:0400000508000FC11F
:00000001FF
